:020000040040BA
:1000000070E6402025394000233940002339400064
:10001000233940002339400023394000000000000C
:100020000000000000000000000000002339400034
:1000300023394000000000002339400023394000EC
:100040002339400023394000233940002339400040
:100050002339400023394000233940002339400030
:1000600023394000000000001536400029364000CA
:100070003D364000233940002339400023394000F9
:100080005136400065364000233940002339400096
:1000900023394000233940002339400023394000F0
:1000A00023394000233940002339400023394000E0
:1000B00023394000233940002339400023394000D0
:1000C00023394000233940002339400023394000C0
:1000D00000000000233940000000000023394000E8
:1000E00023394000233940002339400023394000A0
:1000F0002339400023394000233940002339400090
:10010000233940002339400023394000233940007F
:100110002339400000000000000000000000000043
:10012000233940002339400023394000233940005F
:1001300023394000000000002339400023394000EB
:1001400010B5054C237833B9044B13B10448AFF311
:1001500000800123237010BDD8094020000000005A
:10016000F4A940000C4B43B10C480D4910B5AFF356
:1001700000800C48036823B910BD0A48036833B9EE
:100180007047094B002BF7D0BDE810401847064BCD
:10019000002BF5D0184700BF00000000F4A9400074
:1001A000DC094020F4A940000000000008B5074B1E
:1001B000984203D0064B984204D008BD1520054B49
:1001C000984708BD2A20034B9847F6E70080004077
:1001D0000080054099374000436823F47023436052
:1001E0004368090401F4702119434160704730B439
:1001F00043F69924056915F0020F03D1013CF9D1AA
:1002000001200CE0446814F0020F06D0120402F43E
:10021000702211430BB141F08071C160002030BCED
:10022000704732B900EB8100036B23F001030363D5
:10023000704700EB8100036B43F0010303637047D9
:1002400032B900EB8100036B23F0020303637047B4
:1002500000EB8100036B43F0020303637047042A41
:1002600003D06AB1082A16D0704700EB8100036BF7
:1002700023F008030363036B43F004030363704735
:1002800000EB8100036B23F008030363036B23F08F
:1002900004030363704700EB8100036B43F0080322
:1002A0000363E1E700EB81010B6B23F0F0030B63C9
:1002B0000B6B1A430A637047431E1944B1FBF0F0FD
:1002C000431EFE2B94BF00B24FF0FF3070477AB14F
:1002D00010B4144600EB81010B6B23F47F430B63D6
:1002E0000A6B42EA04220A6300205DF8044B70475F
:1002F0004FF0FF3070470000284B99424BD8A3F5D0
:100300007A5399422DD910B4254CA4FB0234A40B86
:10031000033C244B0B449B00B2FBF3F2033AFF2C4B
:100320001DD9002101316408FF2C01D90629F9D912
:10033000FF2A07D9062905D801315208FF2A01D919
:100340000629F9D913029BB2090401F4E0210B43F9
:10035000E4B22343036100205DF8044B70470021A1
:10036000E6E74900B2FBF1F2033AFF2A11D9002374
:1003700001335208FF2A01D9062BF9D9110289B29B
:100380001B0403F4E0230B43D2B21A4302610020A2
:1003900070470023F2E70120704700BF801A060073
:1003A000F11976050012FD3F08B54FF0FF32826269
:1003B000026A80220260026B082202602022026030
:1003C000042202600A684968034B9847012814BF59
:1003D0000020012008BD00BFF9024000CA68002AC1
:1003E0004CD070B48C68002646604B681B0203F446
:1003F000407343F480530D7C2D0405F4FE052B431C
:100400004360C6604D685DB10B78012D02DD4E780A
:1004100046EA0323022D04DD897841EA032300E044
:100420000023C36001230360022512E0056013F07E
:10043000020F1BD0036B2370036A13F0010FFBD074
:10044000036A002070BC7047036B04F8013B013A5B
:10045000F2D0036A13F4807F14D147F23051012A9D
:10046000E4D013F0020FEFD1002AE5D0036A13F4B1
:10047000807F05D10139F2D10920E3E701207047DF
:100480000520DFE70520DDE7CB68002B43D070B403
:100490008C68002646600A7C120402F4FE024D6855
:1004A0002D0205F440752A434260C6604D685DB177
:1004B0000A78012D02DD4E7846EA0222022D04DD83
:1004C000897841EA022200E00022C26004E014F8C8
:1004D000012B4263013B0FD0026A12F4807F1ED1D0
:1004E00012F0040FF3D1026A12F4807F15D112F0DA
:1004F000040FECD1002BF6D1036A13F4807F11D1E5
:1005000013F0040FF8D002230360036A13F0010F05
:10051000FBD0002004E001207047052000E005200A
:1005200070BC70470520FBE700B587B0002306AA22
:1005300002F8153D0392012204928DF814108DF8F3
:100540000430029301A9024B984707B05DF804FB01
:100550008904400000F1080343604FF0FF328260DD
:10056000C360036100230360704700230361704789
:1005700043684B609A688A609A6851609960086124
:10058000036801330360704730B40D68B5F1FF3F75
:1005900002D000F1080202E0026904E01A46536842
:1005A0001C68A542FAD253684B6099608A6051601A
:1005B000086103680133036030BC70470369426817
:1005C000816891608268416851605A68904206D0A3
:1005D000002202611A68013A1A601868704782683E
:1005E0005A60F5E782B0002301930F4B1B68B3F10B
:1005F000FF3F0AD04FF0800372B683F31188BFF338
:100600006F8FBFF34F8F62B6FEE74FF0800372B675
:1006100083F31188BFF36F8FBFF34F8F62B6019BD7
:10062000002BFCD002B070470C0040200848006846
:10063000006880F308884FF0000080F3148862B6E9
:1006400061B6BFF34F8FBFF36F8F00DF00BF0000B5
:1006500008ED00E0DFF80C00016841F47001016072
:100660007047000088ED00E04FF0807340F8043CD4
:1006700021F0010140F8081C054B40F80C3C40F803
:10068000202C6FF0020340F8243C4438704700BF30
:10069000E50540004FF0800372B683F31188BFF385
:1006A0006F8FBFF34F8F62B60B4A1368013313602D
:1006B000012B0FD1094B1B6813F0FF0F0AD04FF02D
:1006C000800372B683F31188BFF36F8FBFF34F8F30
:1006D00062B6FEE7704700BF0C00402004ED00E06A
:1006E0000A4B1B6853B94FF0800372B683F311882D
:1006F000BFF36F8FBFF34F8F62B6FEE7013B034A34
:1007000013600BB983F31188704700BF0C004020C1
:10071000054B00221A6005490A6041F63F71044A00
:10072000116007221A60704710E000E018E000E056
:1007300014E000E010B582B02E4B1A78D2B20192CC
:10074000FF221A701B78DBB28DF803309DF803305E
:1007500003F08003284A13700722284B1A609DF883
:10076000033013F0800F12D0062300E00B469DF8F3
:1007700003205200D2B28DF803209DF80320591EA9
:1007800012F0800FF2D11D4A1360042B0AD04FF0F3
:10079000800372B683F31188BFF36F8FBFF34F8F5F
:1007A00062B6FEE71B0203F4E063144A1360019B88
:1007B000DBB2104A1370124B1A6842F460021A60DE
:1007C0001A6842F060421A600E4B984700240E4BA4
:1007D0001C600E4B98470E4A136843F04043136069
:1007E0000C4B98470C4B98470C4B9847204602B04F
:1007F00010BD00BF00E400E0F4094020F8094020EB
:1008000020ED00E0110740000C004020550640009C
:1008100034EF00E02D064000CD194000E505400012
:10082000EFF305830F2B11D9124A9B5CDBB2124AFE
:1008300012789A420AD94FF0800372B683F3118876
:10084000BFF36F8FBFF34F8F62B6FEE70B4B1B6892
:1008500003F4E0630A4A126893420AD94FF0800316
:1008600072B683F31188BFF36F8FBFF34F8F62B6F9
:10087000FEE77047F0E300E0F40940200CED00E0F3
:10088000F809402038B5044610F0070F02D020F0D8
:1008900007040834114B9847114B1B6893B1114B57
:1008A0001B681C44A34213D24BF2F77294420FD838
:1008B0000B4A15681D440B4B1C600B4B98474DB100
:1008C000284638BD094B23F00703054A1360E6E7C5
:1008D000054B9847064B98470025F1E7F516400071
:1008E000FC09402000C2402059184000080A40205E
:1008F000D33D400050B14FF0800372B683F31188AE
:10090000BFF36F8FBFF34F8F62B6FEE770470000F3
:1009100010B50446044B9847A46B044B9847B4FAAF
:1009200084F0400910BD00BF95064000E10640007C
:1009300070B504461646856B026C52B90368002BED
:100940002AD14068174B9847002363600135A5639F
:1009500070BD6EB98068144B9847A368226C13442D
:10096000A3606268934219D32368A3600020EDE777
:10097000C0680D4B9847236C5B42E2681A44E26002
:1009800021688A4202D262681344E36045B1022EB4
:1009900006D1013D0020D9E70020D7E70020D5E7A8
:1009A0000020D3E7511D4000AD70400070B582B00B
:1009B0000190846C74B1A26BE36B9A4215D34FF033
:1009C000800372B683F31188BFF36F8FBFF34F8F2D
:1009D00062B6FEE74FF0800372B683F31188BFF36F
:1009E0006F8FBFF34F8F62B6FEE7A26B934203D8BF
:1009F0000026304602B070BD0A4694F845506DB2EC
:100A000001A920460A4B98470646B5F1FF3F0AD197
:100A1000636A002BEDD004F12400064B98470028B0
:100A200018BF0126E5E76B1C5BB284F84530E0E7B0
:100A300031094000211B4000026C72B110B5034621
:100A4000C4681444C4604068844201D31868D86004
:100A50000846D968014B984710BD7047AD704000FB
:100A60002DE9F0410546234B984795F8454064B27F
:100A7000002C19DD204EDFF88C80204F08E06B6AD7
:100A800093B105F12400B84760B9013C64B25CB190
:100A9000AB6C002BF3D000212846B0470028F4D0DF
:100AA000C047F2E7C047F0E7FF2385F84530144B15
:100AB0009847104B984795F8444064B2002C12DDDB
:100AC0002B6983B105F110070C4EDFF8388004E084
:100AD000013C64B23CB12B692BB13846B0470028C9
:100AE000F6D0C047F4E7FF2385F84430044B98471D
:100AF000BDE8F08195064000AD094000211B400093
:100B0000E1064000651C400038B530B304460D4690
:100B10001D4B98472268216CE36B03FB01F3D0184F
:100B200060600020A063A2605B1A1344E360FF23AF
:100B300084F8443084F84530D5B92369FBB104F119
:100B40001000124B9847D0B14FF08052104B1A60F2
:100B5000BFF34F8FBFF36F8F11E04FF0800372B67A
:100B600083F31188BFF36F8FBFF34F8F62B6FEE739
:100B700004F11000074DA84704F12400A847064BD4
:100B80009847012038BD00BF95064000211B40005A
:100B900004ED00E055054000E1064000F8B550B90D
:100BA0004FF0800372B683F31188BFF36F8FBFF3EA
:100BB0004F8F62B6FEE7064617460D4601FB00F072
:100BC00054300B4B9847044678B11DB100F15403E3
:100BD000036000E02060E663256401212046054BA8
:100BE000984784F850700023A3642046F8BD00BFE6
:100BF00085084000090B40002DE9F04F85B00192B7
:100C0000B8B1044601B3022B2CD01E460F46694BE7
:100C10009847002834D1019B002B39D04FF0800336
:100C200072B683F31188BFF36F8FBFF34F8F62B635
:100C3000FEE74FF0800372B683F31188BFF36F8F26
:100C4000BFF34F8F62B6FEE7026C002ADBD04FF095
:100C5000800372B683F31188BFF36F8FBFF34F8F9A
:100C600062B6FEE7E26B012ACFD04FF0800372B686
:100C700083F31188BFF36F8FBFF34F8F62B6FEE728
:100C80000025DFF85C81DFF85CA1DFF8349141E0FA
:100C90000025F6E7324639462046474B9847A36C75
:100CA00093B131462046454B984738B14FF08052BA
:100CB000434B1A60BFF34F8FBFF36F8F414B984781
:100CC000012005B0BDE8F08F636A73B104F1240020
:100CD0003D4B98470028F1D04FF08052384B1A60B6
:100CE000BFF34F8FBFF36F8FE8E70028E6D04FF0D8
:100CF0008052334B1A60BFF34F8FBFF36F8FDDE726
:100D0000304B98470020DCE72046304B9847304B6B
:100D100098470125C047A26BE36B9A42BAD3022ED3
:100D2000B8D0019B002BEBD00DB902A8D047254BC2
:100D30009847284B9847C04794F844305BB2B3F1CA
:100D4000FF3F02D1002384F8443094F845305BB271
:100D5000B3F1FF3F02D1002384F84530194B984787
:100D600001A902A81C4B9847E0B9C047D4F838B095
:100D7000E56B144B9847AB45C6D1019904F11000BF
:100D8000164B98472046114B9847114B984700281F
:100D9000BFD14FF08053C9F80030BFF34F8FBFF37E
:100DA0006F8FB6E72046094B9847094B98470020BC
:100DB00087E700BF711C400031094000AD094000C9
:100DC00004ED00E0E1064000211B4000610A400004
:100DD00059184000F5164000D11B40009D1A4000F4
:100DE00095064000B91B40002DE9F843002839D092
:100DF0000446002941D0022B4DD01F46904689461B
:100E00003A4B9847EFF311864FF0800372B683F3A5
:100E10001188BFF36F8FBFF34F8F62B6A26BE36B86
:100E20009A4201D3022F58D194F845506DB23A46F8
:100E3000494620462E4B9847B5F1FF3F47D1A36C5A
:100E4000002B36D0394620462A4B9847B8F1000F80
:100E500045D0002843D00120C8F8000086F311884F
:100E6000BDE8F8834FF0800372B683F31188BFF3B7
:100E70006F8FBFF34F8F62B6FEE7006C0028BAD0C9
:100E80004FF0800372B683F31188BFF36F8FBFF307
:100E90004F8F62B6FEE7E06B0128AED04FF08003C3
:100EA00072B683F31188BFF36F8FBFF34F8F62B6B3
:100EB000FEE7636AABB104F124000F4B9847B8F129
:100EC000000F10D078B10120C8F80000C6E76B1CF5
:100ED0005BB284F845300120C0E70020BEE7012066
:100EE000BCE70120BAE70120B8E700BF21084000B5
:100EF00031094000AD094000211B40002DE9F047B9
:100F000084B0019290B10446D9B10E46544B984733
:100F100028BB019B5BB34FF0800372B683F311884B
:100F2000BFF36F8FBFF34F8F62B6FEE74FF08003C2
:100F300072B683F31188BFF36F8FBFF34F8F62B622
:100F4000FEE7036C002BE0D04FF0800372B683F312
:100F50001188BFF36F8FBFF34F8F62B6FEE7002794
:100F6000DFF82881DFF828A1DFF8009131E00027C1
:100F7000F6E7314620463B4B9847013DA563236980
:100F800063B104F11000384B984738B14FF08052EC
:100F9000364B1A60BFF34F8FBFF36F8F344B9847B8
:100FA000012004B0BDE8F087314B98470020F8E7F6
:100FB00002A8D04716E0002384F844301DE0002347
:100FC00084F845301FE020462A4B98472A4B984723
:100FD0000127C047A56B002DCBD1019B002BE3D08F
:100FE000002FE5D0224B9847244B9847C04794F8F0
:100FF00044305BB2B3F1FF3FDDD094F845305BB2D3
:10100000B3F1FF3FDBD01A4B984701A902A81C4B54
:101010009847C8B920461B4B98470028D3D0019960
:1010200004F12400184B98472046124B9847124B66
:1010300098470028CCD14FF08053C9F80030BFF357
:101040004F8FBFF36F8FC3E720460A4B98470A4B79
:10105000984720460B4B98470028B9D00020A0E7BE
:10106000711C4000390A4000211B400004ED00E0E3
:10107000E1064000610A400059184000F5164000A2
:10108000D11B4000110940009D1A40009506400008
:10109000B91B40002DE9F04385B0019168B10446C9
:1010A000036CABB14FF0800372B683F31188BFF3CA
:1010B0006F8FBFF34F8F62B6FEE74FF0800372B6BB
:1010C00083F31188BFF36F8FBFF34F8F62B6FEE7D4
:1010D0005E4B984760B9019B93B14FF0800372B6A5
:1010E00083F31188BFF36F8FBFF34F8F62B6FEE7B4
:1010F00000252F46564EDFF88C91DFF8608152E0D4
:1011000000252F46F6E7013BA363236813B9514B33
:1011100098476060236963B104F110004E4B984713
:1011200038B14FF080524D4B1A60BFF34F8FBFF371
:101130006F8F4B4B98470125284605B0BDE8F083DB
:1011400055B14FF0800372B683F31188BFF36F8FF0
:10115000BFF34F8F62B6FEE7414B9847ECE702A81A
:10116000C84729E0002384F8443030E0002384F8A5
:10117000453032E0B04760683A4B98470546384BF7
:1011800098473AE02046384B9847384B984709E053
:101190002046354B9847354B98472046344B984767
:1011A00000283FD10127B047A36B002BABD1019B97
:1011B000002BC5D0002FD2D0294B98472D4B9847F4
:1011C000B04794F844305BB2B3F1FF3FCAD094F813
:1011D00045305BB2B3F1FF3FC8D0214B984701A91E
:1011E00002A8254B98470028D2D12046204B98478B
:1011F0000028C7D02368002BBCD0019904F124003B
:101200001E4B98472046184B9847184B9847002884
:10121000C8D14FF08053C8F80030BFF34F8FBFF3F1
:101220006F8FBFE7002D87D0094B9847636A53B192
:10123000236B1968C1F105016068114B9847084B91
:101240009847002578E70021F6E700BF711C4000B1
:1012500095064000D91E4000211B400004ED00E02F
:10126000E1064000911C4000610A4000591840000E
:1012700011094000F5164000D11B40009D1A4000A6
:101280000D1E4000B91B400010B40B4B1B6853B13E
:101290000123094C54F8332032B10133082BF9D122
:1012A0005DF8044B70470023034A42F8331002EB09
:1012B000C3035860F4E700BFF4C5402070B504468E
:1012C0000D461646124B984794F844305BB2B3F182
:1012D000FF3F0DD094F845305BB2B3F1FF3F0BD028
:1012E0000C4B9847A36B5BB120460B4B984770BDE6
:1012F000002384F84430EDE7002384F84530EFE71D
:101300003246294604F12400044B9847ECE700BF1D
:1013100095064000E1064000610A4000D91A4000ED
:10132000084B1B681B683BB1064B1B68DB68DB681E
:101330005A68054B1A6070474FF0FF32024B1A6033
:10134000704700BF08C24020B8C2402080B5164D8B
:10135000DFF86C80154FDFF86C902B68BBB1144E32
:10136000C047FB68DC68201DB047124A1368013B88
:1013700013602B68013B2B600F4B9847206BDFF805
:1013800048A0D0472046D0472B68002BE8D10B4B14
:101390001B68012BE1D94FF08053C9F80030BFF32F
:1013A0004F8FBFF36F8FD8E778C24020ECC2402048
:1013B000BD05400074C24020E106400010C240203C
:1013C0009506400004ED00E0F508400070B50446C5
:1013D0000E461C4B1D681C4B186804301B4B98476D
:1013E00048B9194B1A681A490B68D06A0122824021
:1013F00023EA02030B60B4F1FF3F00D19EB92C44F5
:10140000114B1B685C60A54214D8124B18680E4B38
:1014100019680431104B9847104B1B689C4201D24D
:101420000E4B1C6070BD084B196804310C480D4B05
:10143000984770BD0C4B1868034B19680431064B74
:10144000984770BD00C3402004C24020BD05400045
:1014500088C2402008C2402089054000B8C2402010
:10146000D8C24020710540000CC240202DE9F04F49
:1014700083B083460D460193DDF834A096003046D4
:10148000604B9847002800F08D80074658205D4B40
:1014900098470446002800F0828007633246A52161
:1014A0003846594B9847043E236B1E4426F00706E6
:1014B0002B7884F834302B7863B12B4604F1340256
:1014C00005F10901587802F8010F13F8010F08B16E
:1014D0008B42F7D1002784F83D700C9D042D28BF66
:1014E0000425E562A564E76404F104084046DFF8DA
:1014F0006C91C84704F11800C8472461C5F105057F
:10150000A5616462276584F85470019A5946304693
:101510003E4B98472060BAF1000F01D0CAF8004056
:101520003B4B98473B4A1368013313603A4B1B68A7
:10153000002B3AD0394B1B683BB9374B1B68DA6A32
:10154000E36A9A4201D8344B1C60354A1368013370
:1015500013602364E06A334A1168012383400B431C
:10156000136000EB800041462F4B03EB80002F4BB4
:1015700098472F4B9847294B1B68002B3BD0264B95
:101580001B68DA6AE36A9A4239D24FF08052294BDB
:101590001A60BFF34F8FBFF36F8F01202CE03846E6
:1015A000254B98474FF0FF3026E01B4B1C6013681B
:1015B000012BCAD11C4E3046204DA84706F114001D
:1015C000A84706F12800A84706F13C00A84706F105
:1015D0005000A8471A4F3846A8471A4E3046A84729
:1015E0001948A8471948A8471948A847194B1F6028
:1015F000194B1E60A9E7012003B0BDE8F08F012060
:10160000FAE700BF85084000E1714000690640002C
:101610009506400074C2402004C24020D4C240203D
:1016200084C2402088C2402010C240207105400082
:10163000E106400004ED00E0F508400055054000DB
:101640008CC24020A0C24020C0C24020ECC240203A
:10165000D8C2402008C240200CC240206B05400088
:1016600010B582B01A4B01930023009382221949CE
:1016700019481A4CA047012804D0B0F1FF3F1CD0F4
:1016800002B010BD164B98470128F6D14FF08003E9
:1016900072B683F31188BFF36F8FBFF34F8F62B6BB
:1016A0004FF0FF320F4B1A6001220F4B1A600022DD
:1016B0000E4B1A600E4B9847E2E74FF0800372B66C
:1016C00083F31188BFF36F8FBFF34F8F62B6FEE7CE
:1016D000B4C24020C49F40004D1340006D14400030
:1016E000B11F4000B8C24020D4C2402000C34020F7
:1016F00035074000024A136801331360704700BF8A
:1017000080C24020014B1868704700BF00C34020D2
:101710002DE9F047414B1B68002B77D1404B1D68EA
:1017200001351D60D5B93F4B1B681B6853B14FF0A5
:10173000800372B683F31188BFF36F8FBFF34F8FAF
:1017400062B6FEE7374A1168374B186810601960B7
:10175000364A136801331360354B9847354B1B6885
:101760009D4218D20024344B1B68DB6A03EB8303D1
:101770009B00324AD358022B28BF0124304B1B68F0
:101780000BB9304B9847304B1B68002B0CBF2046E1
:101790000120BDE8F0870024DFF88890DFF8B480EE
:1017A0002A4F1FE04FF0FF32224B1A60DBE7214A3D
:1017B0001360D8E706F11800C047F06A3A680123C1
:1017C000834013433B6000EB800051461B4B03EB0F
:1017D00080001F4B9847184B1B68F26ADB6A9A42DD
:1017E00028BF0124D9F800301B68002BDAD0D9F8C3
:1017F0000030DB68DE6873689D42D8D306F1040AC6
:101800005046C047B36A002BD4D1D6E70C4A1368C0
:10181000013313600B4B98470024B4E780C240208B
:1018200000C3402008C240200CC24020BCC240205F
:1018300021134000B8C2402004C2402010C2402002
:101840007CC24020D13D400004C3402088C24020DB
:1018500071054000BD054000364B1B6853B94FF081
:10186000800372B683F31188BFF36F8FBFF34F8F7E
:1018700062B6FEE72DE9F0412F4B98472D4B1A68D1
:10188000013A1A601B68002B50D12C4B1B682BB9F6
:1018900000242B4B98472046BDE8F0810024294FB7
:1018A000294E2A4D3B6803B3FB68DC6804F118003D
:1018B000B04704F104084046B047E06A2A680123B3
:1018C000834013432B6000EB80004146204B03EB29
:1018D0008000204B9847204B1B68E26ADB6A9A42E3
:1018E000E0D301221D4B1A60DCE70CB11C4B98477A
:1018F0001C4B1C686CB11C4F184E012501E0013CCB
:1019000004D0B8470028FAD03560F8E70022154B1C
:101910001A60124B1B685BB14FF08052134B1A6078
:10192000BFF34F8FBFF36F8F0124B2E70024B0E7FE
:101930000024AEE780C240209506400074C24020DB
:10194000E1064000C0C24020BD05400088C24020E2
:1019500010C240207105400004C2402004C3402052
:10196000211340007CC240201117400004ED00E02C
:1019700010B5B8B10446104B1B6853B14FF080034B
:1019800072B683F31188BFF36F8FBFF34F8F62B6C8
:10199000FEE70A4B984700212046094B9847094B20
:1019A000984738B94FF08052074B1A60BFF34F8FFA
:1019B000BFF36F8F10BD00BF80C24020F5164000FE
:1019C000CD1340005918400004ED00E02D4B1B687A
:1019D000002B2CD110B500222B4B1A602B4B1B680F
:1019E0001B6B1A68B2F1A53F03D15A68B2F1A53F4B
:1019F00021D0264B186819683431254B9847254B60
:101A00001B68B3FA83F3DBB2C3F11F0303EB83025A
:101A1000920021498A58BAB94FF0800372B683F315
:101A20001188BFF36F8FBFF34F8F62B6FEE70122BD
:101A3000154B1A6070479A68B2F1A53FD9D1DB689F
:101A4000B3F1A53FD5D1DAE7134A9900C81802EBE4
:101A50008000446864684460194402460832944235
:101A600009D003EB83030C4A02EB83035B68DA685B
:101A7000064B1A6010BD6068074A02EB8102506095
:101A8000EFE700BF80C2402004C3402004C24020D2
:101A9000B93D400088C2402010C2402050B94FF0EC
:101AA000800372B683F31188BFF36F8FBFF34F8F3C
:101AB00062B6FEE710B50C46044B19681831044BAA
:101AC000984701212046034B984710BD04C240208F
:101AD00089054000CD13400038B578B114460D4655
:101AE0000C4B196818310C4B9847002C21460CBF41
:101AF00028464FF0FF30094B984738BD4FF0800320
:101B000072B683F31188BFF36F8FBFF34F8F62B646
:101B1000FEE700BF04C2402071054000CD13400025
:101B200038B5C368DC6824B304F1180528461A4B9D
:101B300098471A4B1B683BBB251D2846164B9847F8
:101B4000E06A174A1168012383400B43136000EBDE
:101B500080002946134B03EB8000134B9847134B2F
:101B60001B68E26ADB6A9A4213D90120104B1860A5
:101B700038BD4FF0800372B683F31188BFF36F8FC7
:101B8000BFF34F8F62B6FEE729460A48064B9847D7
:101B9000E5E7002038BD00BFBD05400080C2402001
:101BA00088C2402010C240207105400004C240207D
:101BB00004C34020C0C24020034B1B680360034B9A
:101BC0001B684360704700BFBCC2402000C3402078
:101BD000A8B170B50546E9B10C461D4B98471D4BA1
:101BE0001A6869682368B3F1FF3F2FD01A4800686C
:101BF0002E68864219D08A4217D301241BE04FF089
:101C0000800372B683F31188BFF36F8FBFF34F8FDA
:101C100062B6FEE74FF0800372B683F31188BFF31C
:101C20006F8FBFF34F8F62B6FEE7521A9A4206D308
:101C3000002323600124094B9847204670BD9B1A5E
:101C400023602846064B98470024F4E70024F2E777
:101C50009506400000C34020BCC24020E106400081
:101C6000B91B40000122014B1A60704704C3402099
:101C7000054B1B6833B1054B1B68002B0CBF0220C2
:101C80000020704701207047D4C2402080C240200D
:101C9000002850D038B50446C26A28490968C96A84
:101CA0008A423FD28169002905DB24490968C96A53
:101CB000C1F10501816102EB8202214901EB82023F
:101CC0006169914205D01D4A1268D26AE262012020
:101CD00038BD251D28461B4B984770B9E26A02EBB8
:101CE00082039B001649CB583BB917480368012172
:101CF00001FA02F223EA02020260104B1B68D86A62
:101D0000E062114A1168012404FA00F30B431360E6
:101D100000EB800029460A4B03EB80000B4B9847F1
:101D2000204638BD054A1268806CD36A98422CBFA1
:101D30000020012038BD0020704700BF04C24020B1
:101D400010C24020BD05400088C2402071054000FF
:101D500000284DD038B50446274A126890420AD070
:101D60004FF0800372B683F31188BFF36F8FBFF318
:101D70004F8F62B6FEE7C26C52B94FF0800372B665
:101D800083F31188BFF36F8FBFF34F8F62B6FEE707
:101D9000013AC264C06AA16C88422BD052BB251D97
:101DA0002846164B984768B9E16A01EB81039B000E
:101DB000134AD35833B91348036801228A4023EAEF
:101DC00002030360A06CE062C0F10503A3610D4A49
:101DD0001168012404FA00F30B43136000EB800048
:101DE0002946074B03EB8000074B9847204638BD38
:101DF00000207047002038BD04C24020BD054000CF
:101E000010C2402088C2402071054000002858D0F0
:101E100038B50446C06C50B94FF0800372B683F3F6
:101E20001188BFF36F8FBFF34F8F62B6FEE7A26CCE
:101E30008A4238BF0A46E16A012841D191423FD027
:101E40002048006884420AD14FF0800372B683F3C1
:101E50001188BFF36F8FBFF34F8F62B6FEE7E26268
:101E6000A069002802DBC2F10502A26101EB810139
:101E7000154A02EB810162698A4221D1251D28465B
:101E8000124B984768B9E16A01EB81039B000E4A47
:101E9000D35833B90E48036801228A4023EA02036B
:101EA0000360E06A0A4A1168012383400B43136010
:101EB00000EB80002946044B03EB8000054B98475C
:101EC00038BD704704C2402010C24020BD0540000C
:101ED00088C2402071054000054B1B6823B1044BAC
:101EE0001A68D36C0133D364014B1868704700BF84
:101EF00004C2402008B54160006191420CD8D21A5A
:101F000083699A4201D3012008BD011D094B18685D
:101F1000094B9847002008BD9A4203D2994201D349
:101F2000012008BD011D054B1868034B9847002090
:101F300008BD00BF0CC340208905400008C34020F5
:101F400070B5104B9847104B1B6813B10F4B984757
:101F500070BD0F4D28460F4EB0470F4C2046B0477E
:101F60000E4B1D600E4B1C600022102105200D4BF6
:101F70009847054B18600028E8D00B490B4B984751
:101F8000E4E700BF950640003CC34020E106400066
:101F900010C340205505400024C3402008C3402002
:101FA0000CC340209D0B4000CC9F40008912400094
:101FB00010B582B00E4B98470E4B1B686BB10E4BA1
:101FC00001930423009300234FF482720B490C48C1
:101FD0000C4CA04708B102B010BD4FF0800372B6A0
:101FE00083F31188BFF36F8FBFF34F8F62B6FEE7A5
:101FF000411F40003CC3402040C34020D49F4000CC
:10200000312140006D144000D8B130B585B015467F
:102010000446154A106820B31A46009101950294AF
:10202000052919DC114B984702284FF000030CBF1B
:10203000089A1A4669460C4800680D4CA04705B03E
:1020400030BD4FF0800372B683F31188BFF36F8FFA
:10205000BFF34F8F62B6FEE700236946054CA047E9
:10206000EDE70020EBE700BF3CC34020711C4000BF
:10207000F90B4000E90D40002DE9F04782B08046A1
:10208000244B98470746244B1B6898421BD30023D8
:10209000C8F80030204B1F60384602B0BDE8F0871A
:1020A000002100910B46524620461C4CA04760B9C7
:1020B0004FF0800372B683F31188BFF36F8FBFF3C5
:1020C0004F8F62B6FEE7164D164E2B681A68C2B1E6
:1020D000DB68D3F800A0DC6804F104094846B04787
:1020E000636A20469847E369012BEED1A369534404
:1020F0009A45D5D263602461494628680A4B9847BF
:10210000E3E70A4A10680649086013600123C8F82B
:102110000030BFE70517400038C3402009204000C9
:1021200008C34020BD054000890540000CC3402085
:102130002DE9F04788B0754E754FDFF8FC91DFF858
:10214000FC8133681A68002A00F0CE80DB681C68C6
:10215000B84704A86F4B98470546049B002B44D111
:10216000A04212D20022611B6B4B18686B4B984740
:102170006B4B984700283AD14FF08053C9F8003094
:10218000BFF34F8FBFF36F8F31E0654B98473368D4
:10219000DB68D3F80CA00AF10400C047DAF81C3061
:1021A000012B04D0DAF82430504698471FE0DAF8C3
:1021B000181023462A46214450465A4DA847002865
:1021C000F0D0002100910B4622465046564CA047C5
:1021D0000028E7D14FF0800372B683F31188BFF374
:1021E0006F8FBFF34F8F62B6FEE74D4B98474A4D56
:1021F0004E4C06E007990698059B9847049B002BD8
:1022000008DA002204A92868A047002899D0049B76
:10221000002BEFDBDDF818A0DAF8143013B10AF167
:102220000400C04703A83B4B9847049B092BE8D800
:1022300001A252F823F000BF612240006122400059
:102240006122400003224000B5224000E12240000C
:10225000612240006122400003224000B52240007C
:10226000059CDAF8181023460246214450462D4CAE
:10227000A0470028BCD0DAF8243050469847DAF856
:102280001C30012BB4D1DAF81820002100910B4644
:10229000059802445046244CA0470028A8D14FF08E
:1022A000800372B683F31188BFF36F8FBFF34F8F34
:1022B00062B6FEE70599CAF8181031B10346024626
:1022C00001445046174CA04792E74FF0800372B686
:1022D00083F31188BFF36F8FBFF34F8F62B6FEE7B2
:1022E0005046134B984783E7B84704A8094B9847D3
:1022F0000546049B002B7FF478AF0E4B1B681A68D1
:10230000B2FA82F2520900242DE700BF08C3402030
:10231000F5164000792040003CC34020BD1240002B
:1023200059184000F51E400009204000FD0E4000F5
:10233000F50840000CC3402004ED00E0BD0540005E
:102340004FF07E530361002343618361C3610362E5
:1023500043628362012280F82C200A4A026383636D
:10236000C363036443648364C364002380F8503010
:10237000436580F8583080F85930C36580F8603084
:10238000704700BF0000204138B52DED028B044698
:102390000D4691ED008A80ED008AD1ED017AF5EECF
:1023A000407AF1EE10FA01D0CB6803BB234B636097
:1023B000D5ED027AF5EE407AF1EE10FA01D0EB6835
:1023C00043BB1E4BA360EB68E36094F82C300BB961
:1023D00084ED0C8AF2EE047A77EEC87AF0EE086AA1
:1023E00087EEA67A84ED0D7ABDEC028B38BD9FEDA9
:1023F000147A67EE877A17EE900A124B9847F6EE3A
:10240000007A07EE100A67EE277A67EEA77AC4ED26
:10241000017ACDE79FED0A7A67EE877A17EE900A88
:10242000084B9847F6EE007A07EE100A67EE277A17
:1024300067EEA77AC4ED027AC5E700BFFFFF7F7F92
:1024400035FA8E3CFD48400030B585B00546064B58
:102450000FCB8DE80F0069462846044B9847284665
:10246000034B984705B030BDDC9F400089234000F6
:102470004123400010B4044610310FC984E80F0016
:1024800020465DF8044B704710B52DED048B0446D3
:1024900008EE101A90ED077AD0ED067A67EEA76A7B
:1024A000B6EE009A79EE666A27EE076AD0ED045A16
:1024B00027EE257AD0ED055A67EEA57A76EEC66A44
:1024C00016EE901A77EE277A17EE900A2F4B984760
:1024D000DFED2F8A68EE288A07EE900A77EEE88A09
:1024E00068EE898A18EE900A2A4B984708EE100A7F
:1024F00018EE900A284B984707EE900AB1EE675AFB
:1025000094ED046AD4ED055AD4ED067AD4ED074A69
:102510009FED227A25EE874A67EE873A26EE073A44
:1025200024EE877A68EE066A76EEC46A76EEE36A8F
:1025300065EE242A76EEE26AC4ED046A68EE256A46
:1025400076EE836A76EE876A67EE852A76EEE26A31
:10255000C4ED056A68EE277A77EEC77A77EE837A5C
:1025600065EE855A77EEA57AC4ED067A28EE248AC0
:1025700038EE238A38EE448A26EE056A38EE068A5B
:1025800084ED078ABDEC048B10BD00BFD54A400026
:1025900035FA8E3C85484000FD48400000000000B0
:1025A00070B52DED0A8B8EB0044603A880E80E00AE
:1025B0009DED229A04F120031CAA07CA83E80700B4
:1025C00094F82C30BBB1D4ED0D7A29EE277AD4EDF6
:1025D0000C7A77EEC77AC4ED0C7A94ED007AF4EEBB
:1025E000C77AF1EE10FA06D584ED0C7A002384F850
:1025F0002C3084F8583094ED056AD4ED079A94EDA8
:10260000047AD4ED06AA66EE296A67EE2A7A36EED7
:10261000E7BA69EEAAAA26EE076A7AEE86AA27EE3C
:10262000077AF6EE007A37EE677A69EEA99A77EEC6
:10263000299A012384F850309DED1C8A9DED1DAA36
:10264000DDED1E8AB5EE40AAF1EE10FA18BF0023A8
:10265000B5EE408AF1EE10FA03F0010318BF002333
:102660008BB3F5EE408AF1EE10FA2CD19FEDE88A9B
:10267000F0EE488AB0EE48AA012384F85930DDED27
:102680001FBA9DED20CADDED21CAB5EE40CAF1EEBC
:1026900010FA18BF0023F5EE40BAF1EE10FA03F07D
:1026A000010318BF0023002B00F08980F5EE40CA1B
:1026B000F1EE10FA40F08380DFEDD59AF0EE696A12
:1026C000B0EE697A0DE1626DE3689A4259D868EE1E
:1026D000087A2AEE0A7A77EE877A28EEA87A77EED9
:1026E000877ACC4B17EE902AA3EB620306EE903A62
:1026F0009FEDC97A67EE877A67EEA67A67EEA67ACB
:102700009FEDC67A77EE677A67EEA67A28EE278A7B
:102710002AEE276A68EEA78A29EE867A6AEEA87AF8
:1027200037EE67AA6BEE288A69EE886A78EEE68A49
:102730002AEE888A2BEE066A38EE468A84ED0EAAC7
:10274000C4ED0F8A84ED108A94F82C3073B96AEEC8
:102750000A7A28EEA87A77EE877A48EE087A94ED1E
:10276000017AF4EEC77AF1EE10FA1ED8002384F84D
:102770005030636D092B8CBF0A2200229B1A6365BF
:102780007AE707AE04F1100595E80F0086E80F0020
:102790002046A34B984796E80F0085E80F000023DA
:1027A0006365012384F8583091E7636D01336365F5
:1027B0009FED978AF0EE488AB0EE48AA5CE70023C6
:1027C00084F86030E26DE3689A4200F22D81D4ED26
:1027D000056A94ED067AD4ED044AD4ED075A26EE44
:1027E000875A64EEA57A35EE275A64EEA47AB6EEDF
:1027F000006A77EEC67A27EE076A37EE866A27EE1A
:10280000257A66EEA46A77EE664A6AEEAC5A69EEFD
:102810008C7A75EEE75A69EEAB9A6BEE2CCA79EEBC
:10282000EC9A6BEE0C6A6AEEAB7A76EEE76A25EE0E
:10283000A57A69EEA97A37EE277A66EEA67A37EEA0
:10284000277A744B17EE102AA3EB620304EE103ABA
:10285000DFED717A27EE277A27EE047A27EE047AE5
:10286000DFED6E7A77EEC77A67EE847A67EEA55A67
:1028700067EEA99A67EEA67A24EEA97A66EE276A31
:1028800037EE667A65EE277A64EEA56A77EEE66A39
:1028900066EE257A65EE299A77EEE99A84ED117A4B
:1028A000C4ED126AC4ED139A94F82C307BB967EE2C
:1028B000077A26EEA66A77EE867A49EEA97A94ED33
:1028C000026AF4EEC67AF1EE10FA00F2C880002334
:1028D00084F85930E36D092B8CBF0A2200229B1A21
:1028E000E365D4ED0C7A37EE0A7A27EE277A9FED6E
:1028F0004D6ADDED035A65EE865A37EE257A27EEEE
:10290000097A78EEA66A66EEA76ADDED048A68EEBB
:10291000868A76EEA86A66EE896A38EE298A28EEFB
:10292000278ADDED057A67EE867A38EE278A68EE2B
:10293000097A94ED043AD4ED053A94ED064A94ED03
:10294000075A63EEC75A26EE846A75EEC65A27EE1A
:10295000856A75EEC65A75EE835A67EE034A27EE0E
:10296000846A74EE864A26EE856A74EEC64A74EE70
:10297000A34A26EE836A67EEA32A36EE626A67EE02
:10298000052A36EE226A36EE046A67EE837A66EE30
:10299000A36A77EEA67A27EE047A77EEC77A77EE07
:1029A000857A25EEA57A64EEA46A37EE267A66EE7D
:1029B000066A37EE267A67EEA76A37EE267A154B57
:1029C00017EE102AA3EB620305EE103ADFED126A50
:1029D00027EE267A27EE057A27EE057ADFED0F6AD5
:1029E00036EEC77A27EE057A67EE255AC4ED045A0B
:1029F00067EE246AC4ED056A27EE066A84ED066A6E
:102A000027EE277A84ED077A0EB0BDEC0A8B70BDF5
:102A10000000000012141F5F12D3363FFF51D83F51
:102A20004123400035FA0E3C8DED0BBACDED0CAADA
:102A3000CDED0D9A20AB93E803008DE803001F9BBA
:102A40000EAA12E907000B4DA847014620460A4B83
:102A500098470023E365012384F86030B7E6E36D0F
:102A60000133E365DFED059AF0EE696AB0EE697A4D
:102A700037E700BFDD2A4000892440000000000045
:102A800030B591B0054609AC84E80E0000230D93E3
:102A90000E930F93179B069303AB10AA12E907003E
:102AA00083E8070014AB93E807008DE8070094E87B
:102AB0000E002846074CA04795F82C3013B195F826
:102AC00058300BB111B030BD00212846024B984759
:102AD000F8E700BFA12540008924400082B000B57E
:102AE00085B00DF1100E0EE907000793DDED013AF8
:102AF000DDED026A9DED034ADDED077A9DED085A92
:102B00009DED096A66EE265A24EE057A75EEC75ADF
:102B100024EE277A26EE236A37EE466A25EE235AFC
:102B200067EEA67A35EE675A25EEA57A66EE067A46
:102B300037EE277A65EE057A37EE277A2D4B17EEBA
:102B4000102AA3EB620203EE102ADFED2B2A27EEF8
:102B5000227A27EE037A27EE037ADFED284A34EE55
:102B6000C77A67EE037A67EEA55A27EE866A67EEA4
:102B7000857A24EE065A26EEA77A35EE475A67EE96
:102B8000A37A24EE254A77EEC47A66EEA56A26EE8D
:102B9000236A76EEC66A25EE057A67EEA77A77EEA7
:102BA000277A66EEA66A77EEA67A17EE902AA3EB4E
:102BB000620307EE103A67EEA27A67EE877A67EE55
:102BC000877A74EEE77A67EE877A67EE857A17EE92
:102BD000901A15EE900A0A4B9847DFED0A7A07EE35
:102BE000100A67EE277A17EE900A05B05DF804EB3D
:102BF00002B0704712141F5F12D3363FFF51D83F07
:102C0000D54A4000E02E6542014B1860704700BF76
:102C100044C34020024B1B6803EBC0104254704772
:102C200044C34020024B1B6803EBC010405C70475C
:102C300044C340202DE9F0478418802C02DDC0F108
:102C40008004E2B222B3CD08A1EBC501012606FA49
:102C500001F1CEB2012B1DD0002B35D0022B17D1A4
:102C60000138C7B2D419E4B2DFF890A04FF00009E0
:102C7000DFF88C8021462846D04786EA00024B4682
:102C8000D2B221462846C047013CE4B2BC42F1D151
:102C9000BDE8F0870138C7B2D419E4B2DFF85CA010
:102CA0004FF00009DFF8588021462846D04746EA11
:102CB00000024B46D2B221462846C047013CE4B24E
:102CC000BC42F1D1BDE8F0870138C7B2D419E4B2F3
:102CD000DFF82880CE43DFF8289021462846C047F9
:102CE00006EA00020023D2B221462846C847013C2A
:102CF000E4B2BC42F1D1BDE8F08700BF352F4000FF
:102D0000312E40002DE9F8439DF820708BB11C4610
:102D1000904606464D1EEDB22C44E4B2DFF8189002
:102D20003B46424621463046C847013CE4B2AC42ED
:102D3000F6D1BDE8F88300BF352C40002DE9F04FF7
:102D400083B00446884691469B465B7A9BF80820F0
:102D50000021009149464046214DA8479BF800308C
:102D600013B103B0BDE8F08F9BF80820D30812F030
:102D7000070F18BF01339BF809A09BF80A70E71BE7
:102D800017FB0AF717FB03F7DBF8043013FA87F792
:102D90001FE06400E4B20135EBB29E4210D9EBB201
:102DA00008EB0300C0B213F0070F08BF17F8014B80
:102DB00014F0800FEDD0012249460A4B9847E8E70E
:102DC00009F101095FFA89F90AF1FF3A1AF0FF0ADD
:102DD000C7D09BF80860002EF2D000252C46DEE715
:102DE000052D4000D12E40002DE9F84304469046C1
:102DF0001D4689460D4F0E4608E06A7A013242446C
:102E00005FFA82F8B14614F8013F6BB120780A28C6
:102E1000F3D00D28F7D02B4642464946B8472B7AC7
:102E200099445FFA89F9EEE7BDE8F8833D2D40004B
:102E300070B504460D4616461BB90D4B9847B04277
:102E400015D03246294620460A4B984704F00F0019
:102E500040F0B000084CA047C5F3021040F010004D
:102E6000A04705F00F00A0473046044B984770BDBF
:102E7000252C4000152C4000412F400061314000BE
:102E80002DE9F0410D480E4B98470E4B98474020D6
:102E90000D4B984700254FF001082F460B4E00249C
:102EA00043463A46E1B22846B0470134802CF7D178
:102EB0000135EDB2042DF2D1BDE8F08148C34020C8
:102EC000092C4000812F4000412F4000312E40004E
:102ED000C3092AD11F2928D82DE9F04114460546F7
:102EE000CE08A1EBC601012202FA01F75FFA87F8CA
:102EF000014630460D4B98470246012C09D064B17B
:102F0000022C0ED0002329463046094CA047BDE8CC
:102F1000F08148EA0002D2B2F4E720EA0702D2B216
:102F2000F0E788EA0002D2B2ECE77047252C4000B7
:102F3000312E400008B5014B984708BD252C4000B4
:102F400038B505460822094B5A63094C0121204631
:102F5000084B984701231A4629462046064CA047AD
:102F60004FF4FD70054B984738BD00BF00100E4070
:102F700000800040D9014000EF01400001004020E6
:102F80002DE9F843664D4FF400362E61C5F8A06078
:102F9000644B08271F61C3F8A0706E66C5F8906087
:102FA0006E656E62C5F880602A6F22F400322A676F
:102FB0006A6F22F400326A675F66C3F890705F65DB
:102FC0005F62C3F880701A6F22F008021A675A6FA6
:102FD00022F008025A671F602E601F632E63DFF81D
:102FE0007C8100234FF480024FF0805140464E4CCC
:102FF000A04700234FF400124FF080514046A047F5
:1030000000234FF000724FF080514046A04700234C
:103010004FF480024FF080514046A04700234FF408
:1030200000124FF080514046A04700234FF000723D
:103030004FF080514046A0473C4C4FF00209C4F885
:1030400000904FF08008C4F80080636843F00103EB
:1030500063603A4601212046354B98470022012102
:103060002046344B9847002201212046324B984796
:10307000636823F0020363600022012120462F4B86
:103080009847636823F080036360636843F010032C
:1030900063602B492B482C4B9847C2B20121204634
:1030A0002A4B984720462A4B9847012323606E639A
:1030B00040F6B830274CA0472E6340F6B830A04702
:1030C0002E63A820244CA0471F20A047D320A04750
:1030D0000020A0474020A047A120A047C820A0472B
:1030E000DA20A0474846A0478120A0478F20A0476C
:1030F000A420A047A620A047D520A0474046A0472F
:103100008D20A0471420A047DB20A0474020A047E7
:10311000D920A047F120A047AF20A047BDE8F88301
:1031200000120E4000100E402D354000008000407F
:103130005F0240002302400041024000A50240001F
:1031400080D1F00880841E00B9024000CF02400008
:10315000AD01400001004020412F400000140E400E
:1031600038B505460822094B1A63094C012120464F
:10317000084B984701231A4629462046064CA0478B
:103180004FF4FD70054B984738BD00BF00100E404E
:1031900000800040D9014000EF01400001004020C4
:1031A00010B51048104B98473E2100200F4B984710
:1031B0000F4CA0470028FCD00E4B98470E4A0F4BEF
:1031C0009A620F4CA0470028FCD002200D4B984774
:1031D00000200D4B98470D4B98470248024B9847EB
:1031E00010BD00BF00A3E111F93A400015374000BF
:1031F0006937400079374000013F182000060E4033
:103200008937400079364000B1364000ED39400042
:103210002DE9F04180B90C469046002A0FDD8F1849
:10322000084E094D306821462B6898470134BC424E
:10323000F8D14046BDE8F0814FF0FF38F9E780460D
:10324000F7E700BF3CC6402034C6402001380228C2
:1032500015D82DE9F0410E4614469AB10D46DFF817
:1032600038800C4FD8F8000015F8011B3B689847D0
:1032700000280ADBA81B013CF4D1BDE8F0814FF027
:10328000FF3070471046BDE8F0814FF0FF30BDE8D9
:10329000F08100BF38C640203CC64020F8B54FF44E
:1032A00000425C4B5A60BFF34F8FBFF36F8F5A4B96
:1032B0000022C3F850225A6942F400325A61BFF327
:1032C0004F8FBFF36F8FD3F88070C7F34E3607F080
:1032D00007000430C7F3C907B7FA87FE0EF01F0EC8
:1032E000BFF34F8F4FF0FF3404FA00FC06FA00F0F2
:1032F00004FA0EF407FA0EFE1D463A46734640EAFB
:103300000301C5F86012013A2344B2F1FF3FF6D140
:10331000013E6044B6F1FF3FEFD1BFF34F8F3E4B0C
:103320005A6942F480325A61BFF34F8FBFF36F8FF7
:103330003A4A3B495160A1F580715160BFF34F8F0C
:10334000BFF36F8FD3F8902222F00102C3F89022CE
:10335000D3F8942222F00102C3F89422BFF34F8FD6
:10336000BFF36F8F0A202F4CA0470B20A0470C20E3
:10337000A0471020A0471120A0472B4B4FF480728C
:103380001A61C3F8A0201A63A3F580634FF40062AA
:103390005A61C3F8A0205A66C3F890205A651A6291
:1033A000C3F88420196F21F400611967596F21F463
:1033B00000615967C3F8C020C3F8D420C3F8B02017
:1033C0004FF400121A66C3F890205A655A62C3F887
:1033D0008020196F21F400111967596F21F4001131
:1033E00059675A60114AD2F8143143F01003C2F8F9
:1033F00014310F4B10221A66C3F890205A655A6296
:10340000C3F88020196F11431967596F1143596729
:103410005A60F8BD50180E4000ED00E0000C0E4060
:103420000C08005A9937400000120E4000800840F6
:1034300000100E4001637047416370474264B1F170
:10344000C05F3AD013D8B1F1006F25D0B1F1805FE1
:103450000AD1036F13430367436F416F0B4023EAA5
:1034600002034367426070470029FBD17047B1F106
:10347000205F21D009D8B1F1005FF3D1036F13436E
:103480000367436F13434367ECE7B1F1405F13D029
:10349000B1F1605F10D0E5E710B4016F046FD34362
:1034A00021401C4619400167436F416F0B40234088
:1034B000436742605DF8044B7047036F016F0B4038
:1034C00023EA02030367436F13434367CAE7416478
:1034D00012F0010F0DD1016612F00A0F0BD001623C
:1034E00012F0020F09D112F0080F08D0C0F88410B2
:1034F00005E04166F0E74162F2E7C0F88010416103
:103500000160704710B4019C41644CB901664BB135
:1035100001654AB94163016101605DF8044B704780
:103520004166F4E74165F4E70163F4E770B582B002
:10353000054616461C46B1F1005F14D00AD9B1F118
:10354000405F24D0B1F1605F21D0B1F1205F17D08E
:1035500000201AE0B1F1805F05D0B1F1C05F02D068
:10356000B1F1006FF4D132462846114B984714F060
:10357000010F02D12E66012007E06E66012004E0F3
:103580001A4631460B4B9847012002B070BD04F03B
:1035900001030093C4F38003B1F1605F14BF002204
:1035A000012231462846044CA0470120EDE700BF28
:1035B0003D344000CF34400005354000C06C7047BA
:1035C000806C70472DE9F041044688460E4B9847C1
:1035D000054620460D4B9847054013D00C4C04F18E
:1035E000600603E0B4420DD010345DB12068404560
:1035F000F8D161682942F5D0E3689847636825EA05
:103600000305EFE7BDE8F081BD354000C13540005E
:1036100048C5402008B50A210148024B984708BD1B
:10362000000E0E40C535400008B50B210148024B85
:10363000984708BD00100E40C535400008B50C2164
:103640000148024B984708BD00120E40C5354000A6
:1036500008B510210148024B984708BD00140E40E0
:10366000C535400008B511210148024B984708BDF7
:1036700000160E40C5354000032811D0042812D092
:1036800002280CBF4FF480710021084A136B23F409
:1036900040730B431363936E13F0080FFBD0704716
:1036A0004FF44071F1E74FF40071EEE700060E4071
:1036B000174A136B23F0700318431063936E13F0D3
:1036C000080F0AD14FF4805311498A6E12F0080F87
:1036D00003D1013BF9D1012070470D4A136B23F050
:1036E000030343F002031363936E13F0080F0AD130
:1036F0004FF4805306498A6E12F0080F05D1013B42
:10370000F9D101207047002070470020704700BFAA
:1037100000060E40A0B90E48036A090289B20D4A9C
:103720001A400D4B1343194301620246936E13F086
:10373000010FFBD0064A116A084B0B431362704716
:1037400003490B6A064A1A40064B13430B62704743
:1037500000060E40FCFFC8FF0100370000003701E3
:10376000FCFFC8FE02003701024B986E00F4803067
:10377000704700BF00060E404FF00052014B9A62A6
:10378000704700BF00060E40024B986E00F002002A
:10379000704700BF00060E403F281ED81F280CD8D7
:1037A000114B9A6901238340934318D0012303FAF4
:1037B00000F00D4B18610020704720380A4BD3F8F9
:1037C00008210123834093430BD0012303FA00F027
:1037D000054BC3F80001002070470120704700200E
:1037E00070470020704700BF00060E40436913F089
:1037F000020F02D0C1610020704701207047436969
:1038000013F0010F03D083690B7000207047012073
:10381000704710B40B01934214D9C9004B0803EB55
:10382000C202B2FBF1F2D3085C1E4FF6FE718C426D
:1038300001D9012017E0416841F4002141600CE00A
:10384000012010E0590801EBC202B2FBF3F2D308E9
:103850005C1E4FF6FE718C42F2D8120402F4E02294
:103860001A43026200205DF8044B7047084BC0F811
:10387000E43000234360436283628823036024238F
:1038800003604FF4807303604FF4002303607047BC
:103890000041535570B505460C4616460F4B9847E8
:1038A00000220F4B1A60A4B13246216828460D4B06
:1038B0009847024678B96368A1680B4321690B43B6
:1038C000E1680B4306490B6069680B436B60104667
:1038D00070BD0122FBE70122F9E700BF6D3840000F
:1038E000B8C54020133840004023036070471023C0
:1038F00003607047436913F0020F04D0C1F308015D
:10390000C1610020704701207047436913F0010F27
:1039100005D08369C3F308030B60002070470120C2
:103920007047FEE700B583B0254B264A9A4210D077
:10393000254B234A9A420CD2013B9B1A23F00303E6
:10394000043313441F4951F8040B42F8040B9A4204
:10395000F9D11E4B1E4A9A420AD2013B9B1A23F010
:10396000030304331344002142F8041B9342FBD1A8
:10397000184A194B23F07F039360EFF31083B3FAD7
:1039800083F35B09019372B6BFF35F8F0022134B81
:103990001A700199124A136843F470031360BFF35D
:1039A0004F8FBFF36F8F29B101220C4B1A70BFF3F9
:1039B0005F8F62B60B4B98470B4B9847FEE700BFF3
:1039C00000004020F4A94000D809402070C64020E3
:1039D000D809402000ED00E0000040001C0040201D
:1039E00088ED00E035704000F14640003B4B1B6B1A
:1039F00003F00303012B1DD083B1022B36D0374BCC
:103A00001B6B03F07003702B5FD0344B1A6B34497F
:103A1000C2F302120B68D3400B607047314B5B69F5
:103A200013F0800F14BF4FF400424FF4FA422C4BB6
:103A30001A60E4E7294B1B6A13F0807F03D02A4AFF
:103A4000274B1A60DBE7294A254B1A60234B1B6A78
:103A500003F07003102B05D0202BD0D1224A204B2D
:103A60001A60CCE7224A1E4B1A60C8E71B4B1B6A40
:103A700013F0807F16D01C4A194B1A60174B1B6B32
:103A800003F00303022BBAD1144A916A926A1448D4
:103A9000C1F30A41036801FB0333D2B2B3FBF2F373
:103AA0000360ACE7114A0E4B1A600C4B1B6A03F023
:103AB0007003102B05D0202BE0D10B4A084B1A6065
:103AC000DCE70B4A064B1A60D8E7054A1368094938
:103AD000A1FB03135B081360704700BF00060E4094
:103AE0002000402010180E40001BB70000093D00C8
:103AF00000127A00ABAAAAAA164B984213D9164B09
:103B0000984215D9154B984216D9154B984217D99A
:103B1000144B984218D9144B984294BF134A144A34
:103B2000144B1A6070474FF08062124B1A60704756
:103B3000114A104B1A607047104A0E4B1A607047BA
:103B40000F4A0C4B1A6070474FF00422094B1A6061
:103B5000704700BFBFF35E017FE7BD023FDB1C047F
:103B6000FFCE7B05BFC2DA067FB639080005000428
:103B700000060004000C0E400001000400020004D6
:103B8000000300040A4B1B6853B1094B1B681A1849
:103B90000849914208DB1046054A106018467047F4
:103BA000054A034B1A60F0E74FF0FF30704700BF43
:103BB000BCC54020FCFF452070E840204FF0FF309E
:103BC00070474FF400534B6000207047012070474E
:103BD0000020704708B5074B9847074D2B46002239
:103BE00011460648064CA0472B46142200210548E2
:103BF000A047FEE7812E400010004020FCA34000BB
:103C0000E92D40000CA44000F0B583B005460C46F9
:103C1000002301932A4B984213D02A4B984218D084
:103C2000294B98421DD0294B9D4222D0284B9D42C2
:103C300027D0284B9D422ED0274B9D4235D003B034
:103C4000F0BD1F46254E21463846B0470028FAD120
:103C5000E9E71F46214E21463846B0470028FAD1F1
:103C6000E4E71F461D4E21463846B0470028FAD1EA
:103C7000DFE71F46194E21463846B0470028FAD1E3
:103C8000DAE71E46164D01A93046A8470028FAD1AA
:103C9000019B2370D3E71E46114D01A93046A8476A
:103CA0000028FAD1019B2370C9E71E460C4D01A9DB
:103CB0003046A8470028FAD1019B2370BFE700BF18
:103CC00000080E40000A0E40001A0E40001C0E4074
:103CD000004002400080024000C00240FF37400028
:103CE0000B39400070B50C462A4B984213D02A4B32
:103CF000984219D0294B98421FD0294B984225D081
:103D0000284B98422BD0284B984231D0274B9842D1
:103D100037D0002070BD1E46254D21463046A847AD
:103D20000028FAD1012070BD1E46214D21463046A3
:103D3000A8470028FAD1012070BD1E461C4D21461F
:103D40003046A8470028FAD1012070BD1E46184D04
:103D500021463046A8470028FAD1012070BD1E46F2
:103D6000144D21463046A8470028FAD1012070BDE5
:103D70001E46104D21463046A8470028FAD10120A2
:103D800070BD1E460B4D21463046A8470028FAD18B
:103D9000012070BD00080E40000A0E40001A0E40BF
:103DA000001C0E40004002400080024000C0024063
:103DB000ED374000F538400008B50A460146024894
:103DC000024B9847FEE700BF48A4400085704000C2
:103DD00070474FF0800372B683F31188BFF36F8F83
:103DE000BFF34F8F62B6FEE700B587B08DF81400C1
:103DF0008DF80410012102910392049301A9034854
:103E0000034B984740B207B05DF804FB0000064042
:103E10008904400000B587B08DF814008DF80410B7
:103E2000012102910392049301A90348034B98478F
:103E300040B207B05DF804FB00000640DD0340001F
:103E400030B585B029200E4CA0470E4B019349F6A2
:103E50004043029301A90C480C4B98471020A047FF
:103E60000B4D4FF080524FF0C0512846094CA047EF
:103E70004FF000624FF0C0512846A04705B030BD5A
:103E80009937400000A3E11100000640A90340005B
:103E900000140E403D3440002DE9F04D2DED0E8B09
:103EA000B4B06F4B984717A86E4B984768216E487F
:103EB0006E4B9847C0B200283CD06D486D4B984778
:103EC000012314AA752168206B4CA047002835D027
:103ED0006A48684B98479DF85030682B0CBF68487B
:103EE0006848644B9847012334AA02F88C3D6B2143
:103EF0006820654CA04760BB34AA002302F88C3DC3
:103F000001231C216820604CA04730BB34AA002349
:103F100002F88C3D01231B2168205B4CA04700BBAD
:103F20004FF0010868279FED59BA9FED49AB9FED0F
:103F30004A9BD4E056484F4B9847C1E79DF8502024
:103F4000752154484B4CA0479DF850105248A0474B
:103F5000C1E75248474B9847CEE75048454B9847F2
:103F6000D4E74E48434B9847DAE74D48414B9847D2
:103F700000231A4619464B4800684B4CA0477DE188
:103F800017EE900A494B98479FED49EA07EE900AD1
:103F900067EE8EDA2BEEAB7A6BEE8C7A28EE888A9F
:103FA0003CEEC77A17EE101A77EE887A17EE900A71
:103FB000404B984707EE900A27EE8EEA3E4C1DEEE6
:103FC000100AA04782468B461EEE100AA047CDE994
:103FD00002011DEE900AA047CDE9000152465B4662
:103FE000364824498847F3EE0E7AB4EEE7EAF1EE5C
:103FF00010FA10DDF2EE0E7AF4EEE7DAF1EE10FAD6
:1040000009D5002234A941F8B42D13462C48006884
:10401000254CA04760E0FBEE0E7AB4EEE7EAF1EE45
:1040200010FA40F1AC81F2EE0E7AF4EEE7DAF1EE3E
:1040300010FA40F1A48134A9022341F8B43D0023D1
:104040001A461F480068184CA04745E0AFF30080AF
:1040500000000000008056C00000000000805640B4
:10406000413E400049244000000006402905400030
:104070003CA3400085704000153E40006CA340000A
:1040800098A34000A4A34000E93D40000000803810
:1040900054A3400084A3400094A34000B4A3400074
:1040A000CCA3400040C64020F90B4000354A4000F8
:1040B000E02E6542D54A400061634000D8A340002D
:1040C00044C6402034A9042341F8B43D00231A46D5
:1040D000BB480068BB4CA0470A20BB4B98474346EF
:1040E0000DF143023B213846B84CA047434610AA85
:1040F0003C213846A04743460DF142023D21384657
:10410000A04743460DF13F0240213846A0474346B1
:104110000DF141023F213846A04743460DF13E02D2
:1041200040213846A0479DF843209DF8403043EA9F
:1041300002231BB20BEE903A9DF842209DF83F30CF
:1041400043EA02231BB208EE903A9DF841209DF805
:104150003E3043EA02231BB208EE103A43460DF10B
:104160003D0243213846A04743460DF13A0244211F
:104170003846A04743460FAA45213846A047434644
:104180000DF1390248213846A04743460DF13B0264
:1041900047213846A04743460EAA48213846A04743
:1041A0009DF83D509DF83A109DF83C409DF839200F
:1041B0009DF83B009DF83830F8EEEBBA6BEE8BBA09
:1041C000F8EEE88A68EE8B8AB8EEC88A28EE0B8A89
:1041D00041EA052109B207EE901AF8EEE77A9FED61
:1041E0007C7AC7EE87CA42EA042212B207EE902A0E
:1041F000F8EEE77A87EE87DA43EA00231BB207EE90
:10420000903AF8EEE77A87EE87CA724C1BEE900A76
:10421000A04705460E4618EE900AA04782468B46F8
:1042200018EE100AA047CDE904016B4C52465B46DC
:1042300050465946A04782468B462A463346284672
:104240003146A047654D02460B4650465946A847A1
:1042500082468B46DDE9040102460B46A047024632
:104260000B4650465946A8475D4B984752A3D3E9A1
:1042700000235C4CA04700287FF477AECDED08CA40
:104280008DED09DA8DED0ACACDED0BBACDED0C8AB4
:104290008DED0D8A544B03930BAB93E807008DE82B
:1042A000070008AB0ECB17A8504CA04717A930A8A1
:1042B0004F4B98479DED30CA9DED318ADDED328A36
:1042C000DDED33BA68EEA87AF6EE00CA7CEEE7CAF6
:1042D00068EE086A2CEE087A68EEAB7A7CEEE66A45
:1042E00016EE901A77EE277A17EE900A414B984710
:1042F0009FED41DA07EE900A27EE8DDA28EE8C7AF0
:104300006BEE887A77EE677A77EEA77ABFEE007A5F
:10431000F4EEC77AF1EE10FA76D9B7EE007AF4EE41
:10432000C77AF1EE10FAFFF62BAE2BEEAB7A6BEEFE
:104330008C7A28EE888A3CEEC77A17EE101A77EE50
:10434000887A17EE900A2B4B984708EE100A214CFA
:104350001DEE100AA04782468B46DFED277A68EEF5
:10436000277A17EE900AA047CDE902018DED009B58
:1043700052465B46214822498847DFED22DAFBEEB0
:10438000047AB4EEE7DAF1EE10FA7FF59BAEF3EEC5
:104390000E7AF4EEE7DAF1EE10FA7FF793AE34A975
:1043A00041F8B48D00231A4605480068054CA04723
:1043B00092E600BFAFF300809A9999999999B93F15
:1043C00044C64020F90B400071194000153E4000E2
:1043D000000003436163400009644000A5604000A1
:1043E00079494000ED684000CDCCCC3D812A4000A9
:1043F00075244000D54A4000E02E6542D8A3400015
:10440000857040000000B4422BEEAB7A6BEE8C7AE4
:1044100028EE888A3CEEC77A17EE101A77EE887A73
:1044200017EE900A164B98479FED168A07EE900AF2
:1044300027EE888A144C1DEE100AA04782468B4650
:1044400018EE100AA047CDE902018DED00AB5246EF
:104450005B460E480E498847F3EE0E7AB4EEE78AC3
:10446000F1EE10FA3FF7CDADFBEE0E7AB4EEE78A2F
:10447000F1EE10FA3FF5DFADDFED06DA7FE700BFC2
:10448000D54A4000E02E654261634000D8A3400059
:10449000857040000000B4C270B582B00A20134C91
:1044A000A0470C20A0470B20A047114E00234FF43B
:1044B00080724FF0405130460E4CA04700240094CB
:1044C0002346012211460C480C4DA8470094234670
:1044D00001224FF080413046A84700942346012234
:1044E00004210748A84702B070BD00BF99374000BB
:1044F00000120E402D354000000E0E4005354000E4
:1045000000100E402DE9F047B2F1000915DD0E460E
:1045100005460024DFF830A0DFF83080084F314630
:104520002846D0474046B84731462846054B98476D
:104530004046B8470134A145F1D1BDE8F08700BF3E
:10454000010040203534400039344000252B4D0017
:1045500070B50C4B98470C4E0C4D0D4C04E04FF4CD
:10456000807120460B4B98474FF47A713068A8470A
:104570000028F4D00A224FF480712046064B984759
:10458000F2E700BF9944400040C64020951040002B
:1045900000120E40353440000545400010B582B091
:1045A000002000901E2378220146024CA04702B052
:1045B00010BD00BF052D400080B582B03A4B984732
:1045C0003A4B98473A4B002211463A483A4CA0479A
:1045D0003A483B4B98473B4F3B4E62E0019B012BD7
:1045E00024D0019B022B36D0019B042B4CD0374C9E
:1045F000002201A92868A0470028F9D0019B002BC0
:10460000ECD1334B98472A4B0022114631482A4CB3
:10461000A0474FF0804130462F4CA047012138463B
:104620002E4B984704212E48A047D7E7284B9847A0
:104630001F4B002211462B481F4CA0474FF08041D2
:104640003046264B984701213846234CA047042189
:104650002348A047C5E71E4B9847234C2046184BDC
:104660009847134B002211462046134CA0470421C3
:104670001B481A4B984701213846174CA0474FF06A
:1046800080413046A047AFE7114B984704211448BA
:10469000114CA04701213846A0474FF080413046D9
:1046A000A047124DA3E700BF99444000812E40006F
:1046B0001000402010A44000E92D40001CA4400040
:1046C00085704000000E0E4000120E40FD0E4000AE
:1046D0009D4540002CA44000353440003934400052
:1046E00000100E4038A4400040A4400044C64020C2
:1046F00000B589B0414B9847414B9847414D424BDB
:104700001D60424A424B1A60424A434B1A604FF4C2
:10471000E1330293C02303934FF400630493002416
:10472000059406940E203D4B98473D4A02A9284621
:104730003C4B984728463C4B984728463B4B98476C
:104740003B4E3368214698683A4DA8473368214666
:104750005868A847336821469868A8470194009490
:1047600023464FF4C06234493448354CA0470128F1
:1047700002D03448344B98470023019300934FF400
:10478000C062324932482E4CA047012802D031483D
:104790002D4B98470023019300934FF4C0622E499C
:1047A0002E48274CA047012802D02D48264B984779
:1047B0000023019300934FF4C0622A492A48204CF9
:1047C000A047012802D029481F4B98470322002107
:1047D0000120274B9847274B186040B10022042145
:1047E0002020234B9847244B186020B1FEE7234834
:1047F000154B9847F2E7224B9847F7E7A131400065
:104800009D324000008002403CC64020E53C400014
:1048100038C64020093C400034C64020993740004B
:1048200080D1F00895384000E9384000EF3840006A
:10483000280040207D72400080A24000D53B40000F
:104840006D14400088A2400085704000A8A240007E
:10485000993E4000ACA24000C8A240005145400033
:10486000D4A24000F4A24000B945400000A340009B
:104870009D0B400040C6402044C6402020A340007D
:104880006116400000B51C4A20F00043934283B0FB
:1048900018DDB3F1FF4F05DB014602F0B9F803B0B4
:1048A0005DF804FB694600F0AFFB00F00302012A4B
:1048B00015D0022A0CD0CAB101220199009801F04A
:1048C000AFF9ECE7002100F061FD03B05DF804FBF7
:1048D0000199009800F05AFD00F10040DFE70199CE
:1048E000009801F09DF900F10040D8E70199009887
:1048F00000F04CFDD3E700BFD80F493F00B51D4A7B
:1049000020F00043934283B019DDB3F1FF4F05DB84
:10491000014602F07DF803B05DF804FB694600F043
:1049200073FB00F00300012818D002280ED0D0B18C
:104930000199009800F02AFD00F10040EBE7002209
:10494000002101F06DF903B05DF804FB012201992B
:10495000009801F065F900F10040DCE7019900984A
:1049600000F014FDD7E701220199009801F058F9F1
:10497000D1E700BFD80F493F2DE9F04F8BB0044677
:104980000D4600F0A9F8294B93F900A0BAF1FF3FBA
:1049900006460F4612D022462B462046294601F0F5
:1049A000CDFF834650B94FF000084FF00009424652
:1049B0004B462046294601F099FF20B9304639463A
:1049C0000BB0BDE8F08F1A4BCDF820B00122CDE935
:1049D0000445CDE902458DE80C00BAF1000F17D06F
:1049E00042464B464046494601F038FEBAF1020FB6
:1049F000CDE906010ED102F017FB21230360089BCD
:104A000073B9DDE90667304639460BB0BDE8F08F73
:104A1000CDE90689684601F079F90028EFD1EAE787
:104A200002F002FB089B0360EBE700BF240040207C
:104A300060A44000F0B5244E8BB0044600F008F9A5
:104A400096F90030013305462FD02146204602F06A
:104A5000AFFA074648BB204601F076FA4FF07E5188
:104A600002F09CFA08B3194B0897012220468DE802
:104A70000C0001F075FC02460B461548CDE90423F5
:104A8000CDE9022301F044F996F90030022BCDE97B
:104A900006010DD0684601F039F948B1089B73B999
:104AA000DDE9060101F060FF054628460BB0F0BDC8
:104AB00002F0BAFA21230360089B002BF0D002F029
:104AC000B3FA089B0360EBE72400402068A4400091
:104AD000A4A2400000F006BA2DE9F8435B4F8F43D3
:104AE00005460C4600F0928000290B4602466FDD19
:104AF0000F157BD0A7F2FF37C3F31303F80743F476
:104B000080135CD403EBD27100260B447F1052005B
:104B1000B64616204FF400110EEB01049C424FEAFA
:104B2000D2754FEA420203DC1B1B04EB010E0E445C
:104B3000013805EB43034FEA5101EDD184462024AF
:104B40004FF0004109E020D003EBD275013C4FEA61
:104B500051012B444FEA420220D0734501EB0C0572
:104B6000F1DD002D05EB010C09DBF0469542A3EBCE
:104B70000E0300D9013B521B0844C646E4E7BCF1D2
:104B8000000FF2DB0EF10108F0E79542DCD8002DB2
:104B900005EB010C44DB98460023ECE7134313D1EB
:104BA0004008731003F17F5303F50013F20703EB82
:104BB000075948BF40F000404946BDE8F8835B0014
:104BC00003EBD27352009DE7411C2DD00130E7E783
:104BD000064621F000473E43EFD069BB0F46D30A9B
:104BE000153F5205002BFAD0DE0220D4002400E04D
:104BF00004465B00DD0204F10100F9D5C0F120019B
:104C000022FA01F10B433F1B824073E702460B4639
:104C100001F0FAFB2A46234601F044FABDE8F88386
:104C2000BCF1000FAEDAB6E701362046B9E7002046
:104C300020214FF0FF34E3E702460B4601F030FA43
:104C400002460B4601F00AFDB7E700BF0000F07F07
:104C50002DE9F84320F00045B5F17E5F044600F0F1
:104C6000C68012DCB5F17C5F064616DAB5F1485F06
:104C700080F2CB808B4901F0CDFE4FF07E5102F0E7
:104C80008DF950B12046BDE8F883014601F0C0FE21
:104C9000014602F07BF8BDE8F883204601F054F9A4
:104CA00001464FF07E5001F0B3FE4FF07C5101F011
:104CB000B9FF7D49044601F0B5FF7C4901F0AAFE29
:104CC000214601F0AFFF7A4901F0A2FE214601F032
:104CD000A9FF784901F09EFE214601F0A3FF764925
:104CE00001F096FE214601F09DFF744901F092FE0D
:104CF000214601F097FF72498046204601F092FF5D
:104D0000704901F085FE214601F08CFF6E4901F0EB
:104D100081FE214601F086FF6C4901F079FE2146B3
:104D200001F080FF4FF07E5101F074FE8146204675
:104D300000F0D8FA664B9D4207464946404643DCA0
:104D400002F024F839468046384601F063FE0146F9
:104D5000404601F067FF27F47F6525F00F05804688
:104D60002946284601F05EFF0146204601F050FE2C
:104D700039460446284601F04DFE0146204602F021
:104D800005F8014601F046FE0146524801F040FE9A
:104D90000146404601F03CFE29460446284601F003
:104DA00039FE01464C4801F033FE0146204601F031
:104DB0002FFE0146484801F02BFE002E3FF763AF5F
:104DC00000F10040BDE8F88301F0E0FF394601F052
:104DD00029FF394601F01EFE014601F01BFE3F4946
:104DE00001F018FE01463E4801F012FEE5E73C499D
:104DF00001F018FF37490546204601F013FF014630
:104E0000284601F007FEBDE8F883014601F00AFFDD
:104E10002549054601F006FF244901F0FBFD29461E
:104E200001F000FF224901F0F3FD294601F0FAFEEE
:104E3000204901F0EFFD294601F0F4FE1E4901F082
:104E4000E7FD294601F0EEFE1C4901F0E3FD29468D
:104E500001F0E8FE1A490646284601F0E3FE19492A
:104E600001F0D6FD294601F0DDFE174901F0D2FD23
:104E7000294601F0D7FE154901F0CAFD294601F087
:104E8000D1FE4FF07E5101F0C5FD0146304601F0E4
:104E90007DFF214601F0C6FE214601F0BBFDBDE8C5
:104EA000F88300BFCAF2497108EF1138047F4F3A06
:104EB0004611243DA80A4E3E90B0A63EABAA2A3E1B
:104EC0002EC69D3D6133303F2D57014039D11940E9
:104ED0009999793F2EBD3BB3DB0F493F2EBD3B3344
:104EE000DB0FC93FF8B50C4621F00041B1F1FF4F8F
:104EF000034614DC20F00046B6F1FF4F07460EDCF7
:104F0000B4F17E5F3DD0A51705F0020545EAD075E6
:104F100056B9022D30D0032D30D13248F8BD194694
:104F2000204601F077FDF8BD01B3B1F1FF4F2CD061
:104F3000B6F1FF4F1AD0711AC9153C291ADC002CA2
:104F400039DB2146184601F021FF00F0FDFF00F09B
:104F5000E5FE012D2CD0022D22D0002D2FD022498C
:104F600001F058FD214901F053FDF8BD002F06DB8B
:104F70001F48F8BD1E48ECE71C48F8BDF8BD1D48A9
:104F8000F8BDBDE8F84000F0C9BEB6F1FF4F17D03C
:104F9000022DF1D0032DC0D0012D19D00020F8BD75
:104FA000114901F037FD0146104801F031FDF8BD0F
:104FB00000F10040F8BD3C31C3DA0020C9E7F8BD7C
:104FC000022D0CD0032D08D0012D04D00A48F8BDC5
:104FD0004FF00040F8BD0948F8BD0948F8BD094840
:104FE000F8BD00BFDB0F49C02EBDBB33DB0F49400E
:104FF000DB0FC93FDB0FC9BFDB0F493FDB0F49BFE9
:10500000E4CB16C0E4CB16402DE9F04FA84A20F0BF
:105010000044944289B06EDDA64A944206460D468D
:105020001CDC0028A44940F3FC8001F0F1FCA34BF8
:1050300024F00F049C4206466CD0A14901F0E8FC24
:1050400001462860304601F0E3FC9D4901F0E0FC98
:1050500001276860384609B0BDE8F08F994A94424C
:105060006ADDB4F1FF4F4EDAE715863FA4EBC75473
:10507000204601F0B3FF01F081FD034601462046C2
:10508000059301F0C5FC4FF0874101F0CBFD804650
:1050900001F0A4FF01F072FD01460446404606946B
:1050A00001F0B6FC4FF0874101F0BCFD00210790F4
:1050B00001F04CFF002800F0CB802046002101F0D9
:1050C00045FF002814BF012302237F4A01920221D9
:1050D0003A46009105A8294600F01CFA002E074622
:1050E0000DDA95E80C0002F1004203F1004347425B
:1050F0002A606B6003E0002208604A60002738469F
:1051000009B0BDE8F08F014601F082FC002768601D
:105110002860F4E76D4901F07BFC6D49044601F01D
:1051200077FC01462860204601F072FC684901F0D6
:105130006FFC01276860E2E700F006FF65498046E2
:1051400001F070FD4FF07C5101F064FC01F046FF6E
:10515000074601F013FD5849834601F063FD0146FF
:10516000404601F055FC56498146584601F05AFD2B
:105170001F2F824621DC584A791E24F0FF0352F883
:105180002120934219D05146484601F041FC804607
:10519000C5F800804146484601F03AFC514601F00E
:1051A00037FC002E6860AADA08F1004800F10040E0
:1051B000C5F8008068607F42A1E75146484601F08B
:1051C00027FCE215C0F3C753D31A082B8046DFDD56
:1051D0003E490392584601F025FD80460146484667
:1051E00001F016FC01460446484601F011FC414618
:1051F00001F00EFC36498046584601F013FD414649
:1052000001F006FC01468246204601F001FC039AAB
:10521000C0F3C753D21A192A80462EDC2860A14653
:10522000B8E701F0F7FB254B24F00F049C4206463B
:1052300010D0234901F0EEFB01462860304601F012
:10524000E7FB1F4901F0E6FB4FF0FF37686056E7C8
:1052500003233AE71D4901F0DDFB1D49044601F037
:10526000D9FB01462860204601F0D2FB184901F025
:10527000D1FB4FF0FF37686041E71849584601F00D
:10528000D1FC01468046204601F0C2FB0146814622
:10529000204601F0BDFB414601F0BAFB104904462F
:1052A000584601F0BFFC214601F0B2FB82466AE796
:1052B000D80F493FE3CB1640800FC93FD00FC93FFD
:1052C00043443537800F4943F0A44000004435374C
:1052D00008A3852E84F9223F70A4400000A3852EE8
:1052E00032318D2420F00042B2F1FF4FF8B5044670
:1052F0002ED262B3002803463DDBB2F5000F4FEA21
:10530000E0502CD37F38C3F3160343F40003C207E5
:1053100048BF5B00002647105B00314619244FF060
:1053200080728D189D4202DC5B1BA9181644013C5B
:105330004FEA43034FEA5202F3D113B1013626F08C
:105340000106701000F17C5000EBC750F8BDF8BDAD
:10535000014601F067FC214601F05CFBF8BD14F446
:10536000000201D00EE00A465B001C0202F10101BE
:10537000F9D5801AC6E7014601F04AFB014601F063
:1053800005FDF8BD4FF0FF32F3E700BF2DE9F8430C
:1053900020F00044B4F1485F06460F4649DA01F0B8
:1053A0001DFE002800F09D803146304601F03AFC99
:1053B0004E49054601F036FC4D4901F02BFB2946CC
:1053C00001F030FC4B4901F023FB294601F02AFC97
:1053D000494901F01FFB294601F024FC474901F02F
:1053E00017FB294601F01EFC454901F013FB294635
:1053F00001F018FC80464FF07C51284601F012FC69
:1054000041460446284601F00DFC39460546304623
:1054100001F008FC0146284601F0FAFA0146204650
:1054200001F0F6FA01464FF07E5001F0F1FABDE8C6
:10543000F883014601F0F6FB2C49054601F0F2FB2A
:105440002B4901F0E7FA294601F0ECFB294901F06C
:10545000DFFA294601F0E6FB274901F0DBFA29468D
:1054600001F0E0FB254901F0D3FA294601F0DAFB0F
:10547000234901F0CFFA294601F0D4FB214B9C428D
:105480008046B8DD204B9C4227DC04F17F44214656
:105490004FF07E5001F0BCFA81464FF07C51284617
:1054A00001F0C0FB214601F0B3FA4146044628460C
:1054B00001F0B8FB39460546304601F0B3FB014622
:1054C000284601F0A5FA0146204601F0A1FA01465E
:1054D000484601F09DFABDE8F883DFF834900B4CA4
:1054E000DBE74FF07E50BDE8F88300BF4ED747ADF5
:1054F000F6740F317CF29334010DD037610BB63A5C
:10550000ABAA2A3D9999993E0000483F0000903E81
:105510000000383F2DE9F04FDDB0904C0893013B7F
:105520000193D31E48BF131D669D0791DB1023EA2C
:10553000E37354F82540099319460133A2EBC303E2
:105540000594019A0493059B02909C18A1EB020616
:1055500017D43444002501341FAFDDF89C8108E0E6
:1055600058F8260001F00AFB0136A64247F8040F5E
:1055700007D0002EF4DA01362846A64247F8040F79
:10558000F7D1059B002B28DB089B9E00029B351F53
:105590001D4420AB1E44059B48AA4FF0000902EBB6
:1055A000830847AF019B002BC0F2B982029BB34630
:1055B0001C1FCA465BF8041D54F8040F01F032FBAF
:1055C0000146504601F026FAAC428246F2D147F835
:1055D00004AF474506F10406E4D105980899029CFA
:1055E0006FF04042034613449B000A440DF1300A19
:1055F000191F04EB820553440AEB01020A920B9334
:1056000080464FEA88035CAA0393D318B8F1000FD1
:1056100053F8509C22DD02EB8804543C0BAE47AF9C
:105620004FF06E51484601F0FDFA01F0D7FC01F051
:10563000A5FA4FF08741834601F0F4FA0146484647
:1056400001F0E6F901F0CAFC54F8041946F8040F19
:10565000584601F0DFF9BC428146E1D1049E48463C
:10566000314600F0BBFC4FF07851044601F0DAFA05
:1056700000F06EFC4FF0824101F0D4FA0146204662
:1056800001F0C6F9044601F0A9FC8146069001F03C
:1056900075FA0146204601F0BBF9002E074640F39B
:1056A000E68008F1FF31C6F108035AF8212042FADA
:1056B00003F000FA03F3D31A4A46C6F10704024482
:1056C0004AF82130069243FA04F4002C5BDD069B75
:1056D000B8F1000F03F10103069340F33B82DAF8BF
:1056E0000060002E40F09482B8F1010F40F3558223
:1056F0005246012352F8046F002E00F04A82591CD2
:10570000C6F5807688454AF8236014DD5AF82120D2
:105710000233C2F1FF0298454AF821200BDD039ABB
:1057200052440AEB830391461A68C2F1FF0243F820
:10573000042B4B45F8D1049B002B11DD049B012B5E
:105740004FF0010640F00E8208F1FF325AF8223085
:1057500003F07F034AF822300EE200BF34A8400075
:10576000022C10D139464FF07E5001F051F9074616
:1057700004994FF07E5000F031FC0146384601F0AC
:1057800047F9022407460021384601F0DFFB0028D4
:1057900000F08380059B08F1FF37BB420FDC08F166
:1057A0008043013B0B980AEB8303002253F8041952
:1057B000834242EA0102F9D1002A40F09D80059B14
:1057C000013B5AF82330002B40F0F4810A9A012360
:1057D00052F8041901330029FAD043441A460693BB
:1057E00008F10103934237DC0899099A01EB080795
:1057F00020A901EB870706999E1801EB020906F123
:105800008046679A013E02EB860648AA02EB8308AF
:10581000679B03EB8903039356F8040F01F0AEF97D
:10582000019B47F8040B002B19DB029BBB461C1F96
:105830004FF000095BF8041D54F8040F01F0F2F971
:105840000146484601F0E6F8AC428146F2D1039B9E
:1058500048F8049B9E42DFD1DDF81880D1E6039B17
:105860004FF000099E4248F8049BD5D1F4E705D1DA
:1058700008F1FF335AF82340241226E74FF07C51F9
:1058800001F082FB002840F0538104460021384695
:1058900001F05CFB00287FF47DAF049E3846714226
:1058A00000F09CFB4FF08741A146044601F06CFBE1
:1058B000002800F08D814FF06E51204601F0B2F9C2
:1058C00001F08CFB01F05AF94FF08741054601F0D9
:1058D000A9F90146204601F09BF801F07FFB4AF848
:1058E0002800284601F07AFB08F101073346083307
:1058F00004934AF8270012E0049A5AF82730083A2D
:10590000A14604925BB907F18043013B0AEB830394
:1059100053F80419013F083A0029F9D00492049978
:105920004FF07E5000F05AFB002F0446C0F25C811D
:10593000BB0048A91A1D01EB0308019302924FF026
:105940006E560AEB020B08F104055BF8040D01F03A
:1059500015F9214601F066F9314645F8040D204657
:1059600001F060F9D3450446EFD10026DDF814B00C
:105970000397A8F10408B246BBF1000FB8BF002599
:1059800015DBA54EA54847460025002403E05445F5
:105990000DDC56F8040F57F8041F01F043F90146D7
:1059A000284601F037F80134A3450546EFDA5CAB31
:1059B00003EB8A03A8F1040843F8A05C46AB434517
:1059C0000AF1010AD8D1669B039F032B5AD8DFE85E
:1059D00003F08E5F5F02002F40F30481019A5CA9FF
:1059E0008B1834AC53F8A06CA51855F804AC3146AC
:1059F000504601F00FF880460146504601F008F885
:105A0000314601F007F8286045F8048DAC4246465F
:105A1000EBD1012F40F3E680019A5CA98B18144466
:105A200053F8A06C25460DF1D40A55F8048C314684
:105A3000404600F0EFFF07460146404600F0E8FF11
:105A4000314600F0E7FF286045F8047DAA453E4650
:105A5000EBD10020043436AD54F8041D00F0DAFF19
:105A6000A542F9D1B9F1000F00F0B980349A359B05
:105A700000F1004002F1004203F10043079CA060E6
:105A800022606360069B03F007005DB0BDE8F08F05
:105A9000019C34AD04342C44002054F8041D00F063
:105AA000B9FFAC42F9D1B9F1000F00F08580079A37
:105AB00000F1004301461360349800F0A9FF002F65
:105AC0000BDD34AD0124013455F8041F00F0A2FFB2
:105AD000A742F8DAB9F1000F01D000F10040079BAE
